:020000040800F2
:1000000000400020690C0008670C0008650C00081F
:10001000650C0008650C0008650C00080000000075
:10002000000000000000000000000000670C000855
:10003000670C000800000000670C00086507000856
:10004000650C0008650C0008650C0008650C0008CC
:10005000650C0008650C0008650C0008650C0008BC
:10006000650C0008650C0008650C0008650C0008AC
:10007000650C0008650C0008650C0008650C00089C
:10008000650C0008650C0008650C0008650C00088C
:1000900089050008650C0008650C0008650C00085F
:1000A000650C0008650C0008650C0008650C00086C
:1000B000650C0008650C0008650C0008650C00085C
:1000C000650C0008650C0008650C0008650C00084C
:1000D000650C00087D080008650C0008650C000828
:1000E00089060008650C0008650C0008650C00080E
:1000F000650C0008650C0008650C0008650C00081C
:10010000650C0008650C0008650C0008650C00080B
:10011000650C0008650C0008650C0008650C0008FB
:10012000650C0008650C0008650C0008650C0008EB
:10013000650C0008650C0008650C0008650C0008DB
:10014000650C0008650C0008650C0008650C0008CB
:1001500008B500F0A5F8064B00BF013BFCD100F04C
:10016000E3FA034B00BF013BFCD100F0E3FAF2E7F6
:1001700020A107000023C0E9001283600361C3606F
:100180007047C3684268013330B5B3FBF2F502FB38
:1001900015338468A3420DD0C36802685C1CC46038
:1001A000D154C3684268B3FBF2F402FB1433C3605A
:1001B000084630BD0369013303614FF0FF30F8E7B3
:1001C0008268C36810B59A420ED0836802685C1CCE
:1001D0008460D35C0B7083684268B3FBF2F102FB6E
:1001E00011338360012010BD0020FCE710B501240D
:1001F000254B26491C80DA682244DA605A69224479
:100200005A610A88224492B2B2F57A7F21BF002057
:100210001C811A69088022BF01321A61D86042F23B
:100220000F7038BF0A801A490A88013292B282429E
:1002300083BF00220A8001220A80164988BF5A81A2
:100240000A88013292B2F92A83BF00220A80012271
:100250000A80114988BFDA800A88013292B2632A83
:1002600083BF00220A8001220A800C4988BF9A803D
:100270000A88013292B2042A83BF00220A80012236
:100280000A8088BF5A8010BD8006002076060020B4
:10029000740600207A060020780600207C060020E4
:1002A00007B572B600F0E6F800F0FAF900F048FA87
:1002B00000F05AFA202301930A4B0B4A4FF4E13124
:1002C00000934FF4007300F053FA00F0DDF80121C1
:1002D00000F01CF900F0DAFA00F0D6FA62B603B0CA
:1002E0005DF804FB98060020B8060020014601488E
:1002F00000F041BC0058004008B5094800F02AFC55
:10030000084AD2F814385B07FBD50022064B1A7056
:10031000642300BF013B13F0FF03FAD108BD00BF07
:100320000058004000500040B908002010B50948AE
:1003300000F00BFC084CD4F81438DA07FBD5074B57
:1003400000221978034800F025FCD4F814389B07E4
:10035000FBD510BD005800400050004000000020B8
:1003600008B5FFF7E3FFBDE808404020FFF7BEBF38
:1003700008B5FFF7BBFF074A13780133DBB20F2B39
:10038000137005D9FFF7B8FFBDE80840FFF7E8BFD5
:1003900008BD00BFB908002008B5FFF7C7FFBDE8DA
:1003A00008400020FFF7A2BFF8B5054614460F46E7
:1003B0001E46FFF7F1FF2120FFF798FF15F0800F91
:1003C00018BF7F25E8B2FFF791FF14F0800F18BF28
:1003D0007F24E0B2FFF78AFF2220FFF787FFF8B201
:1003E000032828BF0320FFF781FFF0B2032828BFAE
:1003F0000320FFF77BFFBDE8F840FFF77DBF00005B
:10040000174B70B518700F24FFF7C6FF154D15F880
:10041000010B013CFFF7ACFF14F0FF04F7D1FFF72D
:100420006BFFFFF7B9FFDA20FFF7A2FF0220FFF70B
:100430009FFFA820FFF79CFF1F20FFF799FFFFF702
:100440005BFF094B21461C70084B20461C70084B73
:100450007F221C70BDE870400323FFF7A5BF00BFDB
:1004600000000020A0100008BA080020BB080020EF
:10047000B808002008B500F015FBBDE808404FF4AF
:10048000407000F0E1BB000000487047040000200D
:1004900030B505460C468BB0007B00F059FC0221BC
:1004A000686800F086FD686800F078FC0023164A52
:1004B000200102EB0411CC68125806948C6849683C
:1004C000CDE902320594049101221946CDE90733A2
:1004D000CDE90033686800F07DFC044610B1C0B27D
:1004E0000BB030BD012302460146CDE900030346AF
:1004F000686800F04CFD0221686800F056FD287B1A
:1005000000F018FC2046EBE7B010000838B50446B0
:100510000D46008800F098FBA08B00F095FB208A28
:1005200000F092FB4FF4006000F0A4FD282000F0E2
:100530000FFCA38C0222206A002100F0D5F9A18CC7
:10054000206A00F0F3FA238B02220321606900F095
:10055000CBF9208D00F078FB218EE06A00F0E6FAFE
:10056000238E01220321E06A00F0BEF9207B00F017
:10057000E1FB207B012100F0F7FB29462046BDE886
:100580003840FFF785BF0000F0B500253C4A8FB02A
:1005900013683C4C013313600DF12D03039307AB3B
:1005A00002930DF11A0301930DF12E060DF11B03B9
:1005B000606800932A4608AB2946049608958DF892
:1005C0001A508DF81B5000F004FD08989DF81A3061
:1005D00009908DF82C5013B180238DF82C309DF8A4
:1005E0001B302BB19DF82C3043F040038DF82C309C
:1005F000636B122501336363002394F8D825D9B2C5
:100600008A421FD8502A32D0122303FB024309AE7C
:1006100038330DAF354603CDBD42186059602E46C4
:1006200003F10803F6D1298801201980122303FB66
:10063000024303F13C019887002302444B8084F875
:10064000D82514E05F1C6B43E118D1F838C0604531
:1006500013D19DF82D20423381F84120DDF82E2062
:10066000E018E25072684260CB6B0133CB6300212B
:10067000606800F0A3FC0FB0F0BD3B46BFE700BFD1
:10068000BC080020040000204FF4006000F002BD10
:100690000189406800F04ABA0189406800F048BA10
:1006A00010B51D4C208800F0CFFA2189606800F059
:1006B0003FFA23896068194C0022032100F014F9E5
:1006C000208800F0C1FA2189606800F031FA23899E
:1006D0006068134C0022032100F006F9208800F026
:1006E000B3FA2189606800F023FA238960680D4C11
:1006F0000022032100F0F8F8208800F0A5FA2189F3
:10070000606800F015FA238960680022BDE8104097
:10071000032100F0E9B800BF04060020F80500201E
:10072000E0050020EC0500200148FFF7B1BF00BF45
:10073000EC0500200148FFF7AFBF00BFEC0500202B
:1007400008B5002000F0DEFA4FF0E023002242F26C
:1007500028309A6100F0D0FA00F0DEFABDE80840D7
:1007600000F0E1BAFFF742BD0048704710060020D4
:10077000F8B50446DDE906670D46243011461A46F1
:10078000FFF7F8FC3A46314604F13800FFF7F2FC77
:10079000206800F043FAA08800F056FA40F20230D8
:1007A00000F052FA207A00F0C5FAA38A20690222EA
:1007B000032100F099F8238C0122E069002100F068
:1007C00093F82946206800F0EFF92068082100F02E
:1007D000FFF92068002100F004FA2068002100F0F1
:1007E00006FA2068002100F00EFA20680C2100F0C3
:1007F00004FA2268D36843F02003D3602068BDE880
:10080000F84000F006BA00001A4A13B5136804460F
:10081000013313600368DA6890060DD51B689906EA
:100820000AD5236D14480133236500F000FAC1B2E4
:1008300004F13800FFF7A5FC2368DA6812060ED52C
:100840001B681B060BD50DF1070104F12400FFF70F
:10085000B7FC30B92268D36823F08003D36002B0BC
:1008600010BD636D9DF8071001332068636500F0CB
:10087000DAF9F4E7C0080020003801400148FFF72A
:10088000C3BF00BF1006002070470000032210B550
:10089000134C11464FF44063124800F025F82046EF
:1008A00000F04EF92421204600F05EF9204600F0C9
:1008B00064F920461E2100F065F90B21204600F066
:1008C00067F9204600F06BF92046322100F047F925
:1008D000204600F030F9BDE810403C20FFF790BD05
:1008E00000580040000C01402DE9F04100264FF077
:1008F0000F0E9C46036847684CFA06F4E4071BD5C4
:10090000072E94BF9846B846B4B24FEA84048ABF13
:10091000203CA4B2A4B20EFA04F528EA0508A51CEE
:10092000ADB202FA05F501FA04F42C4344EA0804D6
:10093000072E94BF234627460136102EDCD10360D4
:100940004760BDE8F0810000062809D8DFE800F024
:10095000221D18130E090400114A536A9B07FCD587
:1009600070470F4A136A9907FCD570470C4A136801
:100970009807FCD570470A4A13689B03FCD570475B
:10098000074A13689900FCD57047054A1368180197
:10099000FCD57047024A13689B01FCD5704700BF25
:1009A0000010024006282AD8DFE800F0040A0F14DD
:1009B000191E2400124A136843F0807313607047B5
:1009C0000F4A136843F08063F8E70D4A136843F059
:1009D0008053F3E70A4A136843F48033EEE7084A8A
:1009E000136843F00103E9E7054A136A43F0010382
:1009F00013627047024A536A43F00103536270471F
:100A000000100240034A536823F00303034353607A
:100A1000704700BF00100240034A536823F470136C
:100A200043EA80435360704700100240034A536812
:100A300023F4803343EA00435360704700100240C0
:100A4000034A536823F4003343EA4043536070473A
:100A500000100240034A536823F4404343EA8033C2
:100A60005360704700100240034A536823F46053F8
:100A700043EAC0235360704700100240034A5368A2
:100A800023F4E06343EA0023536070470010024000
:100A9000034A536823F0F00343EA0013536070479E
:100AA0000010024008B50420FFF77CFFFFF74CFF61
:100AB0000020FFF7A7FF0320FFF774FFFFF744FFB5
:100AC0000120FFF79FFF0020FFF7E2FF0320FFF761
:100AD000C1FF0420FFF7D2FF0020FFF7C5FF02206F
:100AE00000F052F90720FFF797FF0120FFF79EFF64
:100AF0000020FFF7A5FFFFF755FFFFF725FF0220B6
:100B0000FFF780FF044B054A05491360054A116051
:100B1000054A136008BD00BF00A24A046806002011
:100B2000005125026C06002070060020016170470C
:100B3000090401617047036843F0010303607047D3
:100B4000036823F0010303607047036843F4807374
:100B500003607047036843F4007303607047490003
:100B600041F4804181607047436823F03F039BB2AA
:100B70000B434360704701617047C36943F400430E
:100B8000C3617047C36903F470430B43C36170478B
:100B90000162704742EA4102D2B2026170470368C3
:100BA00043F4806303607047064A074B90421B681A
:100BB00004BF064B1B6801EB43034900B3FBF1F391
:100BC00083607047003801406C06002070060020EA
:100BD000C36808290CBF23F4805343F48053C360D7
:100BE0007047036923F440530B4303617047C368A4
:100BF00023F4C0630B43C3607047C36823F00C0346
:100C00000B43C3607047436923F440730B43436154
:100C10007047C36843F40053C3607047C36823F44C
:100C20000053C3607047C1F30801416070474068DA
:100C3000C0F30800704703681943016070470368F8
:100C400023EA0103036070470122430903F1804353
:100C500003F50433196800F01F0002FA00F008439E
:100C600018607047FEE77047194B1A4A1A498B42C1
:100C700019D30021194A93421AD34FF0E022D2F837
:100C8000143D174C43F40073164DC2F8143DAC42AA
:100C900011D3154C154DAC4211D3FFF759FA144C32
:100CA000144DAC420FD352F8040B43F8040BDEE7AB
:100CB00043F8041BDFE754F8043B9847E7E754F890
:100CC000043B9847E7E754F8043B9847E9E700BF3F
:100CD000000000200011000874060020C408002055
:100CE00000110008001100080011000800110008A0
:100CF00000110008001100084FF0E02320F07F40B1
:100D0000586170474FF0E022136900F0040023F0AF
:100D100004030343136170474FF0E022136943F06B
:100D20000203136170474FF0E022136943F001039F
:100D300013617047012243099B0003F1604300F0F7
:100D40001F0003F5614302FA00F0186070470000CD
:100D50000123420900F01F0003FA00F0014B43F8A1
:100D60002200704780E100E0432893BF00F160401B
:100D7000044B00F00F0000F564408CBFC1540170BB
:100D8000704700BF14ED00E0034A136823F0070327
:100D900003431360704700BF0020024008B50B4BAF
:100DA00098420BD14FF000710948FFF744FF4FF014
:100DB0000071BDE808400648FFF741BF4FF0806171
:100DC0000348FFF738FF4FF08061F2E7006400400E
:100DD000101002402DE9F3410468884624F0020413
:100DE00004600468964644F0010404604FF6FF7402
:100DF0009DF820C09DF824109DF828209DF83C60A7
:100E00009DF840700194019C051D013C019414B1B2
:100E10004468E407F7D52C68E4076ED50024C46164
:100E20000468B8F1000F4FD044F0800404600468F7
:100E3000BEF1000F4BD044F040040460002B49D0B9
:100E4000036843F0200303600368BCF1000F45D042
:100E500043F0100303600368002942D043F0080305
:100E600003600368002A3FD043F004030360C369B2
:100E7000002F3CD043F00043C361C369002E39D03A
:100E800043F08043C3610E9B0D99013BC3F30803FC
:100E90000B430C99C2690B430B990B431343C3617A
:100EA000036823F0010303604FF6FF730193019B76
:100EB000013B019313B12B68DB07F8D4286800F0DD
:100EC000010002B0BDE8F08124F08004AEE724F018
:100ED0004004B2E7036823F02003B4E723F01003D3
:100EE000B8E723F00803BBE723F00403BEE723F0D1
:100EF0000043C1E723F08043C4E70120E1E7F0B5F8
:100F00000124D0F800528C4045F00105C0F8005291
:100F1000D0F81C62E54326EA04069DF82070C0F86C
:100F20001C6232B3D0F80C222243C0F80C2223B347
:100F3000D0F804322343C0F80432059B00EBC10112
:100F4000C1F84032069BC1F84432079BCBB1D0F8C0
:100F500014322343C0F8143227B1D0F81C321C439A
:100F6000C0F81C42D0F8003223F00103C0F8003270
:100F7000F0BDD0F80C222A40D7E7D0F804322B403D
:100F8000D9E7D0F814321D40C0F81452E4E71FB579
:100F90009DF81C4000920394069C0122CDE9013487
:100FA0000023FFF7ACFF04B010BD43690B4343615E
:100FB0007047436923EA01034361704721B9C3685D
:100FC00043F02003C3607047036943F020030361CB
:100FD00070472DE9F7434FF4D876DDE90A98DDE94B
:100FE0000CEC4FF4E075CDE9006502AD05EB810531
:100FF00055F8085C0E9C4759461917F0040715BFB1
:10100000012789F8007089F80070475916BF4759C1
:101010007F0DFF081F604359C3F3400388F8003079
:101020007368C3F30723CEF80030736803F00F032F
:101030008CF80030B568F368C5F307262570667034
:10104000C5F30746C5F30765E570C3F307252371AC
:101050006571C3F30745C3F30763A670A571E37118
:1010600022B103B0BDE8F043FFF7A8BF03B0BDE86D
:10107000F0830000064BD3F8001421EA0001C3F806
:101080000014D3F8042422EA0002C3F804247047B1
:1010900000000140014BC3F81404704700000140F8
:1010A000AED5808D142001A1C8817FDB40A6AF00A2
:1010B0000000000100000C000000300014000000DF
:1010C0000000000100000C000000300010000000D3
:1010D0000000000100000C000000300008000000CB
:1010E0000000000100000C000000300004000000BF
:1010F0000000000100000C000000300002000000B1
:101100003C00000099030000006400400000000063
:10111000140000000203000000080140001000005D
:101120000203000000080140000800000303000063
:10113000000C014040000000000000000000000022
:10114000000000000000000000000000000000009F
:10115000000000000000000000000000000000008F
:10116000000000000000000000000000000000007F
:10117000000000000000000000000000000000006F
:1016E00003030000000C014000020000040300009E
:1016F000001001400020000003030000000C014026
:101700000001000003030000000C01402000000065
:10171000003801400E030000250000000203000015
:101720000008014000020000020300000008014020
:1017300000040000000000000000000000000000A5
:101740000000000000000000000000000000000099
:101750000000000000000000000000000000000089
:10176000000000000000000000127A0000127A0061
:0417700000127A00E9
:0400000508000C697A
:00000001FF
